:10400000001000207D4400007B4400007B44000041
:104010007B4400007B4400007B4400007B440000A4
:104020007B4400007B4400007B4400007B44000094
:104030007B44000028BE0100413F01007B4400009A
:104040007B4400007B4400007B4400007B44000074
:104050007B4400007B4400007B4400007B44000064
:104060007B4400007B4400007B440000B16D0000F5
:104070007B4400007B4400007B4400007B44000044
:104080007B4400007B4400007B4400007B44000034
:104090007B440000314B00007B4400007B44000067
:1040A0007B440000AD4C00008D4C00007B440000C0
:1040B0007B4400007B4400007B440000F5AC010021
:1040C00099AC010095AC0100EDA40100F1AC010038
:1040D0009DAC0100B5AC0100A1AC01005192010002
:1040E00035AD01007B4400007B4400007B440000B0
:1040F0007B4400007B4400007B4400007B440000C4
:104100007B4400007B4400007B4400007B440000B3
:104110007B4400007B4400007B4400007B440000A3
:104120007B4400007B4400007B4400007B44000093
:104130007B44000010B5054C237833B9044B13B110
:10414000044800E000BF0123237010BD441200208A
:104150000000000048E5010008B5034B1BB103490E
:10416000034800E000BF08BD000000004812002026
:1041700048E50100A3F5803A704700BF174B002BBC
:1041800008BF134B9D46FFF7F5FF00218B460F46F6
:104190001348144A121A17F022F80E4B002B00D0C5
:1041A00098470D4B002B00D09847002000210400B9
:1041B0000D000D48002802D00C4800E000BF16F0AA
:1041C000A3FF2000290000F033F816F089FF00BF9C
:1041D00000000800000000000000000000100020A7
:1041E0004412002078290020000000000000000098
:1041F00010B5144611F06AF9024B1B780BB906236F
:10420000237010BD0010002008B500F018FA013826
:1042100018BF0120014B187008BD00BF001000201E
:10422000014B1870704700BF0010002070477047A6
:1042300008B502F047FBFFF7F9FF02F050FBFFF76C
:10424000F6FFFAE70020704738B5104D2878E0B93E
:10425000FFF7F8FF0446B0B94FF4E0500FF014FE3A
:104260000FF08CFE0FF04AFE03F046FA0BF0C0FA96
:1042700007F050F904F01DFF0CF04AF92246022124
:1042800004200FF01FFE01232B7038BD60120020A8
:1042900010B5064C23783BB109F07CF909F07AF9A6
:1042A0000FF008FE0023237010BD00BF6012002035
:1042B00000F0D7B808B50421002001F001FC04216A
:1042C000062001F0FDFB0721084601F0F9FB07215C
:1042D000082001F0F5FB07211C2001F0F1FB07216C
:1042E000242001F0EDFB0721252001F0E9FB00204F
:1042F00008BD000007B501A802F016F8224A936D28
:10430000DB0313D4536B23F4FF0323F4FE4343F482
:10431000BC1343F4A0635363136B23F4704343F45F
:1043200040431363136B43F4E06313639DF805305C
:10433000012B0FD19DF8043063B94FF000531B6877
:10434000124B1B68124B1B68124B1B68124B1B68ED
:10435000124B1B68124AD2F8803043F00303C2F8B4
:10436000803002F091FA00F087F802F02DFA02F0A6
:1043700033FA02F06FFAFFF79DFF02F014FA03B070
:104380005DF804EB00F076B800C00040004000206B
:104390000080002000C0002000000120004001201B
:1043A0000080004008B500F01BFC00F029F8BDE8D3
:1043B000084000F035B808B500F051F8BDE80840F5
:1043C00002F0C4BE08B502F0BBF902F0C5F902F074
:1043D000DBF9BDE80840FFF737BF08B502F074FC11
:1043E0000CF0F6FE0EF0C2FA0EF06AFABDE80840D4
:1043F0000EF018B9704702F02DBB704770470000EF
:10440000014800F017B900BF10BE010018B1034BFE
:104410001860002070472520704700BF9C120020C4
:1044200010B5054C0549206800F054FE2068BDE831
:104430001040FFF7EBBF00BF301000200C10002031
:10444000014B1868704700BF9C120020042208B579
:1044500011460123032001F045FE002008BDFFF7AF
:10446000F5BF042208B511460023032001F03AFEEF
:10447000002008BDFFF71CBF7047FEE708B500F03D
:1044800013F8064B064A07498B4201D3FFF776FE25
:1044900052F8040B43F8040BF6E700BF00100020AD
:1044A00050E5010044120020044B054A9A60D3F8FD
:1044B000882042F47002C3F88820704700ED00E0C5
:1044C00000400000014B1868704700BF3811002001
:1044D000014B1860704700BF38110020084B1B6F5C
:1044E00003F00703022B04D0032B05D0012B05D0CA
:1044F000FEE7044B18687047034BFBE7034870471F
:1045000000800040381100203C110020002D3101B6
:1045100008B5FFF7E3FF054B1B6FC3F3013301330E
:10452000B0FBF3F0024B186008BD00BF00800040F4
:10453000341100200048704700B4C404014B1868CF
:10454000704700BF3C110020054B1860054B1B6FE6
:1045500003F00703032B01D1FFF7DABF704700BF59
:104560003C11002000800040002070470048704748
:10457000002D3101174B9868C0F304400C2822D855
:10458000DFE800F0092121212121071719211B1D36
:104590001F00114870479B6803F04073B3F1807FA0
:1045A00013D0B3F1007F12D00C4A002B08BF104685
:1045B00070470B4870470B4870470B4870470B48D3
:1045C00070470B487047002070470A4870470A48F8
:1045D000704700BF0040014A405DC60000093D0031
:1045E0000024F400C0EA210180BA8C010048E801EF
:1045F000005A620280841E0040420F004FF40040C7
:1046000070474FF47A707047014B1868704700BFCD
:104610004011002005490A681318054883428CBFE1
:104620004FF0FF320B601046704700BF441100206E
:1046300000800120436803B1184722207047436976
:1046400003B11847FF2070470A681378022B0DD07A
:10465000302310795843064B1B585079C340DB4335
:1046600003F0010308461370FFF7CEBD704700BF8B
:1046700014C0034037B50468002301220546617960
:10468000207901F02FFD302322795A430E4B9B589D
:104690006279D340DB4303F001032370A379022B3B
:1046A0000ED100F09DFA2A460849607900F0C2FA5E
:1046B0000123024661792079CDE9003301F0CEFC77
:1046C000002003B030BD00BF14C0034049460000C5
:1046D000036818787047000002681378022B22D014
:1046E000302311795943104B5B585179CB40917964
:1046F00003F00103012912D1508843EA40034FF629
:10470000E07063F03F039BB2834202D1117053808B
:1047100070474FF6DF718B42F9D10021F6E711B9EE
:1047200083F001031370704714C0034003681A78C4
:10473000022A03D100225A80FFF79CBF704713B5AD
:1047400004682378022B10D0A379022B0BD100210F
:10475000607900F05DFA0023627920791146CDE995
:10476000003301F07BFC0223237002B010BD000077
:104770002DE9F04F9A46564B85B01B7806460F46FA
:104780001546DDF83C909DF844B0DDF85080002BD4
:1047900000F08D80072A00F28C800E9B002B00F029
:1047A0008880B9F1000F00F08480129BB3F5006F90
:1047B0007FDC012802D1109B002B7AD0454B03EB04
:1047C00005131B7B002B76D0434C1022002168463A
:1047D00016F005FD04EB45141022002F59D139467F
:1047E000204616F0FCFC43F210036380BBF1000F7F
:1047F00003D1E37843F00303E370374A0E9B02EBE7
:10480000451CCCE90193129B6901013BC3F30A00EB
:104810009DF84C30012E03F003034FEA836343EA13
:10482000001E53582D48CDF800A000EA03004EEAC0
:104830000003535041D113230CF1100ECCF80C306F
:104840009CE80F008EE80F006FF00301DCF81C20DD
:10485000109B61F39F02012FCCF81C20CCF8143080
:1048600003D1CCF81890CCF804300027194A29015C
:1048700002EB051342F80180159A28465A606946F2
:1048800022469F605E7301F0A5FC384605B0BDE886
:10489000F08F0021204616F0A2FC4FF44473638091
:1048A000BBF1000FA9D1E37843F03003A4E70C4833
:1048B000ECE70C48EAE70C48E8E7B8F1000FD4D180
:1048C0009CF8023068F304138CF80230CDE700BF87
:1048D00020140020A0120020201300200F80FFF3DE
:1048E000028000F0018000F0078000F038B5124B24
:1048F00005461B78DBB1E0B101F055FB0F4A002300
:104900001146147B54B92B6001251A0101EB0313E6
:104910001D738C5001F04DFB204638BD0133082B30
:1049200002F11002EDD101F044FB0548F5E705481E
:10493000F3E70548F1E700BF20140020A012002093
:10494000048000F0028000F0018000F0154B13B5E8
:104950001868002301908DF8043001F024FB124BFD
:104960001C7824B101F025FB104802B010BD0122D3
:104970001A7001F01EFB0E4B01A81C731C7783F804
:104980002C4083F83C4083F84C4083F85C4083F82B
:104990006C4083F87C4008238DF8073001F0F0FB71
:1049A0002046E2E768BE010020140020038000F0EA
:1049B000A012002010B588B00E9C009207940D9CA8
:1049C000024606949DF8304005940B9C04949DF893
:1049D000284003940024CDE9013420460B462146AB
:1049E000FFF7C6FE08B010BD10B588B00F9C00924E
:1049F00007940E9C024606949DF8344005940C9C46
:104A000004949DF82C4003940A9CCDE901340B4694
:104A100001210846FFF7ACFE08B010BD0A4A08B5F0
:104A200012785AB107280BD8084A02EB00131B7BF7
:104A300043B1002101F096FB002008BD0448FCE7CB
:104A40000448FAE70448F8E720140020A0120020E8
:104A5000028000F0018000F0078000F00A4A08B5EB
:104A600012785AB107280BD8084A02EB00131B7BB7
:104A700043B1012101F076FB002008BD0448FCE7AA
:104A80000448FAE70448F8E720140020A0120020A8
:104A9000028000F0018000F0078000F00D4B1B78D1
:104AA00093B1072812D889B10B4B03EB00131B7B82
:104AB00073B10A4BDA6A012303FA00F010401ABFFF
:104AC00000200B7008707047054870470548704714
:104AD0000548704720140020A01200200000044068
:104AE000028000F0018000F0078000F00B4A10B552
:104AF00012780C4662B107280CD859B1084A02EB6B
:104B000000131B7B43B101F0B3FB2060002010BDFC
:104B10000448FCE70448FAE70448F8E720140020BA
:104B2000A0120020028000F0018000F0078000F059
:104B30002DE9F843174B1F6D5B6D1F4000D5FEE755
:104B400001260025144CDFF85480DFF854903742DA
:104B500017D02368C8F850609BB1A168284601317E
:104B60006268A1609847637B012B0AD148B909EBC1
:104B700045131A7B60F341021A731A7F60F34102F6
:104B80001A770135082D4FEA460604F11004DED1EC
:104B9000BDE8F88300000440A0120020002004407B
:104BA0002013002070B5044601250C4E04B970BDD9
:104BB00094FAA4F3B3FA83F305FA03F206EB0311B4
:104BC00024EA02044A68002AF0D0D8B20B7B13B161
:104BD00089689047EAE79047E8E700BF241400207F
:104BE00008B5192001F0E8F928B14FF00072074B21
:104BF000C3F880211A601A2001F0DEF928B14FF0C5
:104C00008062024BC3F880211A6008BD00E100E019
:104C100038B505460C4601F0C6F90022044B03EBFB
:104C200005135C601A73BDE8384001F0C2B900BFDB
:104C300024140020F8B505460F46164601F0B3F9D6
:104C4000104B05F0FC02D3F824140023EC1804F0F8
:104C50000304144321FA04FC1CF0010F07D00133B4
:104C6000042BF3D1FF2401F0A4F92046F8BDFF2C5A
:104C7000F9D00122044B03EB0413C3E901761A7344
:104C8000F1E700BF00C0034024140020064BD3F816
:104C90002404D3F8202403F50053104000F05530CD
:104CA000C3F82004FFF77EBF00C00340064BD3F8D3
:104CB0002404D3F8202403F50053104000F0AA3058
:104CC000C3F82004FFF76EBF00C00340042203684E
:104CD0005A619A699207FCD541F2AC5210210379CE
:104CE0005B0103F1804303F5703399507047000076
:104CF00038B141B1013AB2F5006F044838BF002025
:104D00007047034870470148704700BF037000F0C8
:104D1000027000F038B504460D4601F044F9A3884E
:104D20009BB223B92B6001F044F9064838BD142228
:104D300063889BB202FB034408342C6001F039F90C
:104D40000020F3E70B7000F0F7B50446164601911A
:104D500001F029F9A388E2889BB29A42054601999D
:104D600006D80023336001F024F9124803B0F0BDE7
:104D7000142720883A4680B207FB0040083016F01E
:104D800007FA2388E2889BB207FB034308333360AA
:104D9000238828469BB20133B3FBF2F102FB1133A7
:104DA0009BB22380A38801339BB2A38001F001F959
:104DB0000020DBE70A7000F090F83130022B0BD1B5
:104DC0003023427F90F821005A43044B9B5823FA2A
:104DD00000F000F0010070470020704714C003404D
:104DE000002313B51D4A52F8044B94F82110814258
:104DF0000ED00133042BF6D102B010BD0028FBD138
:104E00009DF80730002BF7D0A068FFF707FEF3E707
:104E100094F83130022BEFD12046FFF7CDFF637EAF
:104E20002076022BE8D194F82E3003F0FF02002BFD
:104E3000E2D1A0680DF107018DF80720FFF72EFEE3
:104E4000237E1BB194F82F30002BD7D00023A0680D
:104E500084F82F30FFF702FECEE700BF24160020B3
:104E600030B5012490F8325087B080F82D4095B9C4
:104E7000436B026823444363094B0490CDE902531A
:104E80004B683C32CDE900430B6801698068FFF74D
:104E900091FD07B030BD002380F82D30F9E700BF49
:104EA000ED4E000038B504460D4601F07CF8A388AD
:104EB0009BB223B92B60BDE8384001F07AB81422C8
:104EC00063889BB202FB034308332B606388E2884C
:104ED0009BB20133B3FBF2F102FB11339BB263804F
:104EE000A388013B9BB2A380E5E70000F7B5144619
:104EF000906A01A9FFF70EFF636B013B6363154BDB
:104F0000984220D00026019B1E619E6001F04BF864
:104F1000019A0546D76827B1D2E9002331462046D9
:104F2000B847A06A01A9FFF7BDFFA06A83889BB2BA
:104F300063B101A9FFF7EEFE20460199FFF790FF4C
:104F4000284601F036F8012003B0F0BD84F82D307A
:104F5000F6E700BF0B7000F02DE9F04104469046E3
:104F6000FFF7C6FE0E46074690BB152001F032F84B
:104F70000546A26A93889BB213B194F82E3053B3BE
:104F800094F8323023B923689D6915F0020503D1E6
:104F90002046FFF79BFE0025012384F8303094F86B
:104FA000323033B9B0444645206819D183699B0635
:104FB000FCD56DB942F2AC52102123792F465B012A
:104FC00003F1804303F570339950082223685A6136
:104FD0003846BDE8F081002DCCD0FFF7A9FDC8E729
:104FE00016F8011B01F0C8FADDE7000010B5044611
:104FF00080B190F82E302BB9FFF7DEFE10B9A06813
:10500000FFF70CFD002094F82E300133DBB284F85A
:105010002E3010BD0048FCE7027000F010B50446C9
:10502000A0B190F82E309BB190F82E30012B05D115
:10503000FFF7C2FE10B9A068FFF710FD002094F83A
:105040002E30013BDBB284F82E3010BD0148FCE766
:105050000148FAE7027000F0057000F037B590F8EB
:1050600031500446022D1DD1012290F82230457E98
:10507000817F9A403020164B25B900FB013342F264
:10508000100105E0012D07D100FB013341F21001B1
:105090005A50002003B030BD247E00FB0133002CA9
:1050A000F4D1ECE7012DF4D1037E73B911238DF80F
:1050B0000730FFF79BFF2A4620460DF10701FFF757
:1050C0004BFF2046FFF7AAFFE3E71323EFE700BFFC
:1050D00000C00340F0B50446A14F8BB003AE0D46AF
:1050E0000FCF0FC697E8070086E807001CB99D4C54
:1050F00020460BB0F0BD0DB99B4CF9E738220021DA
:10510000204616F06CF80023984963630A78984BA0
:105110002AB9C3E90022C3E9022201220A70944994
:105120000022084650F8046BB4420AD00132042A27
:10513000F8D1002251F8040B002840F0D28043F847
:1051400022402B7D84F831300023286884F83230E7
:1051500020602B7B2371874B984240F0C78021232E
:1051600084F82330844B23614FF48023002663614D
:10517000D5E90723626216805680968084F82C60F9
:10518000A3621E805E809E806B6884F82D6005930C
:10519000EB8984F82F60ADF81C302B8A03A9ADF899
:1051A0001A30AB7C8DF80C608DF81830EB7C8DF8E4
:1051B0001E3005238DF8193001F05CF914212A7B8B
:1051C0006E4B03EB4217C7F8AC15287AA97A2E323A
:1051D00040EA014C03EB4213C3F804C06A7AEB7A4D
:1051E00042EA034CC7F8BCC5E076E177227784F841
:1051F00020306B7D04226377AB7D84F82130EB7D1A
:10520000A3772B7E84F82230012300F06BFF01236B
:10521000022294F82010207F00F064FF94F83130CF
:10522000022B7AD13346012294F82110607F00F0DE
:1052300059FF3346042294F82210A07F00F052FF59
:10524000012394F82120CDE900331146607F00F05E
:1052500005FF00F0A8FE2B7D0646032B6ED141F220
:10526000AC5202212B7B5B0103F1804303F57033C9
:10527000995004212A6802F58052D165297EEA7D81
:1052800042EA014241F2B8515A50A97D6A7D42EA90
:10529000014241F2B4515A504FF0FF32286800F5F4
:1052A00000539A642B7D032B0CBF0521042101F0D0
:1052B0009BF84FF440622B685A61FFF747FB0021CF
:1052C00004F10800FFF712FB014628B904F10C00B5
:1052D000FFF70CFB044600B1294C304600F069FE94
:1052E00006E70132042A7FF425AF00E7254B9842F8
:1052F00007D1222384F82330234B23614FF4A023CA
:1053000034E7224B98427FF4F7AE232384F823300E
:105310001F4B23614FF4C02328E7032B99D1334659
:1053200094F82110607F012200F0DCFE3346042255
:1053300094F82210A07F00F0D5FE8AE7022BABD1B3
:1053400094F821001349FFF763FCFFF749FC4FF481
:105350000073238300232046A376FFF77FFE9BE79D
:105360006CBE0100027000F0037000F034160020E3
:1053700024160020008005400200040000C0034005
:105380000E7000F000C0054002000500000006405D
:1053900002000600E14D0000F0B587B00446164655
:1053A000FFF7A6FC054638BB0493154B03960593FF
:1053B0002368CDE901169B699B0702D42046FFF7BD
:1053C00085FC6A46A06A01A9FFF7BEFC054698B9AC
:1053D00094F82D3083B900F0E6FDA36A06469B8859
:1053E0009BB233B120460099FFF73AFD012384F8C0
:1053F0003030304600F0DDFD284607B0F0BD00BF7C
:10540000017000F02E4B98424AD022D82D4B984282
:1054100040D014D82C4B984239D00AD82B4B984204
:1054200032D02B4B98422FD02A4B98422CD00020C0
:105430007047294B9842FAD1284B186F7047284B78
:1054400098422AD0274B9842F1D1244BD3F88000C0
:105450007047254B98422BD009D8244B984223D033
:10546000234B9842E3D11D4BD3F88C007047214B5E
:10547000984221D003F5740303F510539842D6D116
:10548000164BD3F898007047144B986D7047134B28
:10549000586E7047114B586F7047104B986F70479C
:1054A0000E4BD3F8840070470C4BD3F8880070473C
:1054B0000A4BD3F890007047084BD3F8940070471C
:1054C0000048E8010024F400C0CF6A0080841E0078
:1054D00000093D0040420F00405DC6000080E00F23
:1054E000C0EA210180BA8C01007E560380D54302B8
:1054F000006CDC020090D00338B5124B0546D3F89F
:1055000020310C4603F00703013B032B17D8DFE8DB
:1055100003F0020A0E12FEF7D5FF042305B128603E
:1055200004B1237038BDFFF709F80323F6E7FFF74E
:1055300021F80523F2E7FFF719F80223EEE700232D
:105540001846EBE70080004037B50C460021124AB0
:105550000191D2F88021054602F00302022A0ED002
:10556000032A11D0012A14D101A8FFF7C5FF0D238A
:105570000DB1019A2A6004B1237003B030BDFEF76B
:10558000F9FF05230190F3E7FEF7F0FF02230190F6
:10559000EEE70B46ECE700BF0080004038B5104B4B
:1055A0000546D3F840310C4603F00303022B0BD021
:1055B000032B0DD0012B0FD1FFF720F8082305B1E5
:1055C000286004B1237038BDFFF71EF80723F6E703
:1055D000FFF717F80923F2E700231846EFE700BFAB
:1055E0000080004038B5104B0546D3F860310C46BA
:1055F00003F00303022B0BD0032B0DD0012B0FD193
:10560000FEF7FCFF082305B1286004B1237038BD04
:10561000FEF7FAFF0723F6E7FEF7F3FF0923F2E7A9
:1056200000231846EFE700BF0080004038B5134B59
:105630000546D3F800320C4603F00703013B032B69
:1056400018D8DFE803F0020A0E12FEF7D7FF08238E
:1056500005B1286004B1237038BDFEF7D5FF0723DC
:10566000F6E7FEF7CEFF0923F2E7FEF751FF0C2322
:10567000800AEDE700231846EAE700BF00800040FB
:1056800038B5134B0546D3F808320C4603F0070330
:10569000013B032B18D8DFE803F0020A0E12FEF7D5
:1056A000ADFF082305B1286004B1237038BDFEF7B3
:1056B000ABFF0723F6E7FEF7A4FF0923F2E7FEF7A7
:1056C00027FF0C23800AEDE700231846EAE700BF16
:1056D0000080004038B5104B0546D3F840320C46E8
:1056E00003F00303022B0BD0032B0DD0012B0FD1A2
:1056F000FEF784FF082305B1286004B1237038BD8C
:10570000FEF782FF0723F6E7FEF77BFF0923F2E7A8
:1057100000231846EFE700BF0080004038B5104B6B
:105720000546D3F800310C4603F00303022B0BD0DF
:10573000032B0DD0012B0FD1FEF700FF032305B182
:10574000286004B1237038BDFEF75EFF0723F6E73B
:10575000FEF70AFF0623F2E701230020EFE700BF70
:105760000080004041F671330F4A10B5D169D36310
:1057700093680E4C23F44013A04288BF43F4801377
:1057800093600B4A0B4CD2F81832A04223F002036C
:1057900088BF43F0020301F48031C2F8183211B11E
:1057A0000022014BDA6310BD00000340C017530212
:1057B00000C0074080F0FA0208B5FEF7BBFEBDE866
:1057C0000840FFF7CFBF0000032814D005D80128F8
:1057D00005D0022809D0002005E00F28FBD1084B96
:1057E000186FC0F3013001307047054BD3F89000BB
:1057F000C0F30460F7E7024B186FC0F38020F2E7B4
:10580000008000401FB500230293252817D8DFE849
:1058100000F0131A1D262B353A51565B60656A78E5
:10582000161A3F1616561A262B26351A5126783A7E
:105830003A3A3A2626265B60FEF750FE029002981E
:1058400005B05DF804FBFEF763FEF7E7FEF746FEE2
:1058500002460220FFF7B8FFB2FBF0F0EEE7FEF7DA
:1058600057FE02460320F5E7FEF752FE02460320EC
:10587000FFF7AAFFB2FBF0F04008DFE7002102A823
:10588000FFF762FEDBE7002102A8FFF735FED6E74F
:1058900003934FF0E0231B695B0705D5FEF738FE45
:1058A0000390039B0293CAE70DF1070103A8FFF7DA
:1058B00075FEF6E7002102A8FFF770FEBFE70021A2
:1058C00002A8FFF78FFEBAE7002102A8FFF7AEFE9D
:1058D000B5E7002102A8FFF7D3FEB0E7002102A838
:1058E000FFF71CFFABE7094BD3F8803003F003034D
:1058F000022BA8D0032B01D000209FE7FEF73AFE31
:105900009CE7002102A8FFF7E5FE98E70080004031
:1059100008B50120FFF776FFBDE80840034988423B
:105920008CBF02210121032000F002B880F0FA02AE
:10593000032810B50C4626D004D8012804D002282C
:1059400016D010BD0F28FCD1FFF736FF00F026F867
:10595000114B013C196F21F4405141EA04341C679A
:10596000FEF7D6FDFFF7FEFEBDE81040FFF7D0BF03
:10597000094B013CD3F8901021F0F85141EA04643E
:10598000C3F89040DDE7044B013C196F21F48061BE
:1059900041EA84241C67D4E70080004002210320F0
:1059A000FFF7C6BF002307B58DF80230252822D89F
:1059B000DFE800F013212121212C324C52585E6483
:1059C0006A7D212138212152212121212C214C21A4
:1059D0007D32323232212121585E384B1B6F03F069
:1059E0000703013B032B06D8DFE803F00E020A0C85
:1059F00004238DF802309DF8020003B05DF804FB2B
:105A00000323F6E70623F4E70223F2E700200DF173
:105A10000201FFF799FDEEE700200DF10201FFF70B
:105A20006BFDE8E701934FF0E0231B695B0707D5A7
:105A3000FEF76EFD0B238DF803309DF80330D8E799
:105A40000DF1030101A8FFF7A9FDF6E700200DF114
:105A50000201FFF7A3FDCEE700200DF10201FFF7E1
:105A6000C1FDC8E700200DF10201FFF7DFFDC2E72D
:105A700000200DF10201FFF703FEBCE700200DF14D
:105A80000201FFF74BFEB6E70C4BD3F8803003F072
:105A90000303022B03D0032B05D00023A9E7FEF755
:105AA00037FD0B23A5E7FEF765FD0523A1E70020E1
:105AB0000DF10201FFF70EFE9DE700BF00800040E0
:105AC00070B50C46252847D8DFE810F026004600C0
:105AD0004600460046005A006B009C00AD00BE0028
:105AE000CF00E000F1000201460046007C004600C5
:105AF0004600AD0046004600460046005A004600FB
:105B00009C00460002016B006B006B006B004600BE
:105B100046004600BE00CF008B1E042B2DD8DFE8C8
:105B200003F0291C032C260000250226FFF744FE63
:105B3000FFF734FF6F4A136F23F0070333431367F4
:105B4000FEF7E6FCFFF70EFEFFF7E2FE25B9032C99
:105B500002D10122684B9A6270BD0122674B032675
:105B60009D6A03F58053C5F340059A62DEE7002580
:105B70000426DBE700250126D8E700252E46D5E7D9
:105B80008C1EE4B20B2C8CBF00215D4B594A98BF90
:105B9000195DD2F8803123F003030B43C2F8803142
:105BA000DAE78C1EE4B2032C8CBF0021554B514A1E
:105BB00098BF195DD2F8203123F007030B43C2F8D8
:105BC0002031C9E70B2912D00ED8CC1F022CC3D824
:105BD0004D4A536A43F0010353624FF0E0221369C8
:105BE00023F004031361B7E70E29B5D1F0E7464A65
:105BF000536A23F0010353624FF0E022136943F02C
:105C00000403EFE7CC1FE4B2022C8CBF00213F4B12
:105C1000384A98BF195DD2F8403123F003030B4393
:105C2000C2F8403198E7CC1FE4B2022C8CBF0021AF
:105C3000374B304A98BF195DD2F8603123F0030327
:105C40000B43C2F8603187E7CC1FE4B2052C8CBF50
:105C50000021304B274A98BF195DD2F8003223F05B
:105C600007030B43C2F8003276E7CC1FE4B2052CE1
:105C70008CBF0021284B1F4A98BF195DD2F808320B
:105C800023F007030B43C2F8083265E7CC1EE4B2E9
:105C9000042C8CBF0021214B164A98BF195DD2F805
:105CA000003123F003030B43C2F8003154E7052908
:105CB0000CD00B2914BF002102210E4AD2F88030EB
:105CC00023F003030B43C2F8803045E70321F4E7D8
:105CD000CC1FE4B2022C8CBF0021114B054A98BFA7
:105CE000195DD2F8403223F003030B43C2F840326F
:105CF00032E700BF0080004000E0004000C00040EC
:105D000088BE010094BE010000C0074098BE01009B
:105D100098BE01009BBE01009BBE0100A1BE010018
:105D200098BE010038B50546FFF76CFB204B0446D2
:105D30005A68012A04D11F494A609A699207FCD126
:105D40000020FFF72FFE042803D1FFF735FDFFF7F2
:105D500025FE194A24F04073954220D0174A9542F7
:105D600020D0174AD16811F0060FFBD190689360DC
:105D7000916803F4F81301F4F8118B4215D1284609
:105D8000FEF7A6FB0020FFF70DFE04280FD1FEF75B
:105D9000BFFBFFF7E7FCBDE83840FFF7B9BD43F0B4
:105DA0000073DEE743F08073DBE79060EAE738BD1D
:105DB00000C0014000E0014040420F0080841E000E
:105DC0000000014070B504460020FFF7EBFD0328FA
:105DD00077D045F60E0302223F49C1F880303F4B91
:105DE0009A62012203F580539A628A6D12F480321E
:105DF000FBD1637820781B0543EA0063A079257CFA
:105E00000343E078667C43EA0043207943EA0033A9
:105E1000607943EA80130B618B69E07A03F00043F9
:105E20000343E07943EA8063207A43EA0063607ABF
:105E300043EA0043A07A43EA00238B61637B096A4B
:105E4000002B18BF0822207B21F00D0143EA01033B
:105E500043EA800342EA03021F49A37B0A624FEA36
:105E600043132FD1886AE27B20F0330043EA021308
:105E7000034343F001038B62194B8A6D33EA02023C
:105E8000FBD10222154B9A628B6D5B00FCD44FF064
:105E900000420869A37820F4700040EA03500F4BD9
:105EA00008619A611DB9022203F580539A6216B9FE
:105EB00001220C4B9A62A37C1BB1074B0A4AC3F820
:105EC000802070BD8A6A22F033023243134343EAD2
:105ED00045038B62EFE700BF00C0004000D00040E8
:105EE0000300014000E00040F1A7FFFF014B93F9E0
:105EF0000000704735160020F0B54FF4D156022748
:105F0000174A41788478C37805785662154E4F2930
:105F100077604FF0010728BF4F2106F58056776064
:105F20001669F603FCD441EA052151611B01417950
:105F300043EA04230B43017943EA41039360C379A5
:105F400081791B0143EA4113417A0B43017A43EA09
:105F500041035360837A13B16FF4D1535362F0BDA0
:105F60000000024000100240014B1880704700BF43
:105F7000481100200028ABBF00F16040054B00F540
:105F8000614000F00F00ACBF90F80003185C0009FE
:105F9000704700BF14ED00E0EFF3108072B6704759
:105FA00000B962B67047EFF31180302383F3118894
:105FB000704780F311887047054B420953F822302F
:105FC00000F01F0023FA00F0C04300F0010070470A
:105FD00000E100E0014608B5EFF31083DB0702D5CE
:105FE0000122104608BDFFF7E7FF02460028F7D15F
:105FF0000846FFF7BFFF0146EFF3118313B1B0EB83
:10600000131FEDD2074B5B68C3F30803002BE8D0E6
:10601000103B58B2FFF7AEFF88428CBF002201222E
:10602000DFE700BF00ED00E04FF04022D36E0179C2
:1060300023F030030B43D366704770B50546144612
:106040000E46FFF7A9FF296881EA040202EA060466
:106050004C402C60BDE87040FFF7A2BF072AF7B59F
:106060000D4614461F460FD803219600B14000FA92
:1060700006F215480191FFF7E0FF05F003020199D0
:106080001248B240FFF7D9FF114B12499DF820008A
:10609000002F08BF1946012303FA04F40C600E4BCD
:1060A0000E49002808BF0B461C600D4B9DF82400CC
:1060B000C3F820441031A3F6DC33002808BF0B4698
:1060C0001C6003B0F0BD00BF00C4034008C403401F
:1060D00010E4034010D4034014D4034014E40340FC
:1060E00000E00340F8B504460D461F4616464AB187
:1060F00001238B403021184A01FB0022F7B141F205
:10610000100153503023072D4FF00F0104FB03F310
:1061100017D8A80006FA00F2814010481844FFF78B
:106120008CFF56B9012130230B4801FA05F503FB1A
:10613000040077B141F21003C550F8BD42F21001DE
:10614000DFE7A5F10800800006FA00F2814004486C
:10615000E4E742F21003EFE700C0034004C003404D
:106160000CC00340044A054B002918BF1346012206
:1061700002FA00F0186070474020044040100440CC
:1061800030B5047845788178C27801200F4B41EA18
:106190000541240658609C609961FF2199620021A5
:1061A000996319644FF0004159654FF0FF314FF486
:1061B000001003F50053196505491301DBB2C1F85E
:1061C000800181F81533086030BD00BF0000044035
:1061D00000E100E02DE9F04101250C46C3B2DFF8F3
:1061E00088E0D1F800809D408F7ACB7A94F80DC07A
:1061F000097BCEF850500EF5005E4EF820804FF02F
:10620000300E184E1B050EFB006043EA074343EABD
:10621000415322F00302C0F860C0C3650267FFF774
:10622000C2FE736D2B437365237A13B1336C2B431A
:106230003364637A13B1B36B2B43B3632279A379CD
:1062400043EA0243084A93616179E37943EA0143EF
:1062500006498B61034B55639D64BDE8F041FFF730
:10626000A8BE00BF0000044000200440001004400D
:10627000F8B50125C3B204469D40FFF794FE3022D5
:10628000094B1E6D5F6B02FB04335C6EFFF791FEE2
:106290003D4206D1C4F30A1008B9354200D101309D
:1062A000F8BD0020FCE700BF000004404FF40032BE
:1062B000014B1A67704700BF005000404FF0402369
:1062C000D3F894007047836813B9816070475B68A6
:1062D0005A68012AFBD159607047C369032B9FBFDD
:1062E00000EB83020133D160C3617047C369042BA3
:1062F00015D84FF09842116CC902FCD504339B00AD
:1063000013650168103B116041680C30116050F852
:10631000041C034411604FF09842984200D170472A
:1063200050F8041B1160F8E7054B5B69C3F3851255
:10633000827003F03F021B0B42700370704700BF76
:1063400000C007400D4B984208D1A3F50033C3F8B5
:106350008411C36D43F08003C3657047084B9842B6
:1063600004D1A3F51033C3F89411F2E7054B98421A
:1063700004BFA3F52033C3F8A411EAE70080054069
:1063800000C005400000064070B5054616461C4694
:1063900019B90320FFF736FA0146402C1BD003D869
:1063A000DCB1202C1BD070BD602CFCD1042303FB7E
:1063B00006F2560806EB4113B3FBF2F3094A203B01
:1063C00002EAC303AA6822F06002AA60AA68144322
:1063D000AC60EB61E7E70623E9E71023E7E7082372
:1063E000E5E700BFF8FF7F00012200F580535A6007
:1063F000CB43934003F00A034361416111B900F5B7
:106400000050426070470000012200F5805310B533
:106410005A6040F6AA6341F2050243610023124923
:106420008360C365C26000F500520361C361C36449
:1064300091640E498365884206D00D4CA04203D07A
:1064400004F58044A0420BD18842036506D0084B76
:10645000984203D003F58043984201D1002343655D
:106460000123536010BD00BFFFFF01000080054005
:1064700000C0054070B50D46FFF7C6FF012300F5CB
:1064800080567360AB7C04461BB1836843F0804345
:106490008360EB7C1BB12046297DFFF753FF2A8ADE
:1064A0006B7B20461343EA891343E3602B7BD5E9DA
:1064B0000112FFF769FF6B7D1BB1A36843F48033C2
:1064C000A360AB7D1BB1A36843F40043A360EB7DE5
:1064D0002A7E1B07120502F4E00203F0E043134397
:1064E000A3656A7E931E012B214B20D89C421AD0B3
:1064F00003F580439C4218D003F580439C420CBFB7
:1065000002234FF0FF3341F2AC5102205B0103F153
:10651000804303F570335850032A23D10423F365D5
:106520002B78636170BD0023EDE70123EBE79C420C
:1065300014D0104B9C4213D003F580439C420CBFF7
:1065400002234FF0FF3342F2AC5102205B0103F112
:10655000804303F570335850012ADEE70023F2E749
:106560000123F0E7042204F50053DA65D8E700BF01
:106570000080054000C0054083695B06FCD5C1630F
:106580007047000038B50446054D0EF067FF0FCC8C
:106590000FC594E80F0085E80F00002038BD00BF4C
:1065A0003816002047F6FF739A42F0B563D00329EE
:1065B00063D8334BCF0003EBC10013F8311084785C
:1065C000012913D10025C3781B1B9D4202D3E0187B
:1065D000C0B2F0BD591B4668A3EB510136F91160FA
:1065E0009642D4BF0D4601F1FF33EEE74068002824
:1065F000EFD0B0F90010914204DBB0F902109142E3
:10660000B8BF114682883B44FF2A19BFC8222826FA
:10661000B0F90620B0F90860A2EB01020CBF012519
:10662000002592FBF6F25F782A447B1E934228BF36
:1066300013464FF47A7E00EBC305AE68EA88AC4699
:1066400011FB02621E4622EAE272013302F5FA727F
:106650009F42B2FBFEF204D9BCF80CC00835944549
:10666000EBD200EBC6008088904228BF1046A042C3
:1066700038BF2046ACE7FF20ABE70020A9E700BF0A
:10668000381600200329F0B553D82B4800EBC1047D
:1066900010F83110636801290FD1E078A478904296
:1066A00094BFC4EB0001C4EB0201001BCAB28242DA
:1066B000C8BF002233F91200F0BD002B39D0A178F9
:1066C000914202D3B3F90200F6E7E178B3F9000092
:1066D0009142F1D999886478A1F1FF06013C714299
:1066E00003F10405E4B2714103F10C071FFA82FCC7
:1066F000CEB2B44216D805EBC1014FF47A756A43A5
:10670000B1F902404968521A04EBD47102EB6102FC
:1067100092FBF4F29042CFDBB3F902009042CBDC63
:1067200010B2C9E737F831E04E1CE645E3D33146F5
:10673000DEE70248C0E700BF381600200080FFFFF8
:1067400008B50448FFF71EFFBDE8084001200EF021
:1067500087BE00BFA8BE01007FB50222084B0949D1
:10676000CDE901234FF00073CDE90313052301A9FF
:106770004FF0FF3005930EF0D5FE07B05DF804FB37
:10678000006A180000020400002307B5CDE90033B9
:10679000012369464FF0FF308DF802300EF022FEE3
:1067A00003B05DF804FB4FF0402213B50024536F93
:1067B000684643F00103536700948DF80440FFF7E7
:1067C00033FC204602B010BD08B50248FFF7AAFA14
:1067D000002008BD00B4C40470B586B001AA1546F7
:1067E000184B03F11006144618685968083303C49F
:1067F000B3422246F7D119889B782180A370124BAF
:10680000D3F84C21120314D4D3F85041E4B28DF8DC
:106810000E40FFF76BFB204480F308008DF80D005D
:106820000A48FDF791FE2846FFF7CCFA002006B093
:1068300070BD074B1C884FF6FF739C4208BF852430
:10684000E5E700BF94BF01000080E00F00F04902BF
:106850000001E00F1FB50B4A01AB1068516803C37C
:106860001189927A19809A704F2301A88DF805300A
:10687000FFF742FB6420FFF777FB002005B05DF8CF
:1068800004FB00BFA7BF01006FF00402502110B548
:106890000A480B4C12F0800FD3B21BBF03F00F035A
:1068A000043BA3181B1802F101020CBF83F800136C
:1068B00019763D2AEED1002010BD00BF00ED00E0AA
:1068C00000E100E008B5FDF715FDFDF76BFDFDF7F4
:1068D00072FDFDF777FDBDE80840FDF77EBD08B508
:1068E000FDF788FDFDF787FDFDF787FDBDE8084052
:1068F000FDF784BD03680174C0E90133C3607047CC
:10690000037CDB0701D5408A7047D0E901239B1A3D
:1069100044BF428A9B1898B270472DE9F041164651
:106920000546FFF7EDFFB04228BF304686B20F465E
:10693000B046B8F1000F0FD15EB12B7CD90744BF30
:1069400023F001032B742B7C9A0744BF23F002032E
:106950002B743046BDE8F0816C8A2B6869681C4452
:10696000641AA4B2444528BF444627B1384622469B
:1069700014F00EFC27446A682B68698A2244194483
:106980008A4238BF1346A8EB04041FFA84F86B60F0
:10699000CFE730B50346448AC56800682044401BF1
:1069A00080B2824228BF024601B10D60D9681868E2
:1069B000114420448142D96024BF091BD960D868A2
:1069C0005968884208BF197C104604BF41F0020193
:1069D000197430BD83688B420FD0428A036881608E
:1069E0001344994224BF891A8160D0E901329A4246
:1069F00002BF037C43F001030374704710B50A4CD7
:106A000040220021204614F0EAFB00230121074A1E
:106A10001370074A1460074A1180074A1380402206
:106A2000064B1A8010BD00BF68160020B416002067
:106A30005C16002062160020B616002060160020AA
:106A4000002208B5114610460AF010FABDE80840C9
:106A5000FFF7D4BFF7B500F0D9F900283EDD624C4E
:106A6000624D21882B88624E994228BF19463068B2
:106A700000F0B2F95F4F32683B8881B212FA80F2BF
:106A800013FA80F0388020882B88401A80B25B1A75
:106A90000128326020802B8005D1574B1B78022BB8
:106AA00001D100F097F9218809B12B88B3B9524A76
:106AB0001378012B16D0022B2FD0CBB94F4B1B785C
:106AC000012B07D0022B0BD093B903B0BDE8F040E7
:106AD000FFF794BF032323800123137003B0F0BD9D
:106AE0000423F8E7454B1978012906D002290DD077
:106AF00003B0BDE8F040FFF7A3BFDB782380238815
:106B00004BB90122B7F900103C4843E0D9781B7912
:106B100041EA0323F2E70223DFE7384C41B10022C8
:106B2000402120460AF0A2F9402334602B80D5E7AB
:106B30000846019100F04EF92278012A3CD140F636
:106B40003140B4F801300199834226D040F63342F7
:106B5000934237D040F6354293422DD10522284842
:106B600014F03DFBE278264D052A03D12846211D6D
:106B700014F00EFB234AB5F8031013780B44DBB274
:106B800021491370B1F803108B4288BF11700022A5
:106B9000114610460AF06AF997E71C4814F01FFBEB
:106BA000E2781A4E012A03D13046211D14F0F0FA82
:106BB00033780BB9134A137029880122C1F14001BF
:106BC00009B2A1E70722104814F009FBE2780E4E43
:106BD000072A03D13046211D14F0DAFAB6F8032053
:106BE000084B1A70E8E700BF62160020601600200C
:106BF0005C160020B6160020B4160020681600208F
:106C0000AF16002058160020A81600206416002099
:106C100070B5C2B00A4605460C460146684614F0F7
:106C2000B7FA9DF80030042B2ED19DF80130052BCA
:106C300005D10022214B01201A70FDF7F1FA9DF8D1
:106C400001300E2B10D141F20202BDF80430934204
:106C500010D19DF8113063F01F038DF811302246DA
:106C60006946284614F094FA2846A1B200F0E2F8EA
:106C700042B070BD40F6314223F00203934204BF9C
:106C800000238DF80630EAE7022BEDD10C4B1B7880
:106C9000002BE9D00B4B1B889C420BDC074E307855
:106CA00030B10120FDF7BCFA3378013B3370DBE7EC
:106CB000FDF7B6FA4FF0FF30DAE700BF58160020B4
:106CC00064160020A816002008B5FFF797FEBDE85F
:106CD000084000F02FB8000013B5074C01A9206848
:106CE000428A5208FFF755FE20680199FFF772FEAD
:106CF000012002B010BD00BFBC16002037B5002532
:106D0000094C6946C0680095FDF7F0FE2A4601A9C6
:106D10002068FFF73EFEDDE900312068C91AFFF761
:106D200059FE03B030BD00BFBC16002008460AF073
:106D300047B9000070B5184C184E86B000212046A7
:106D4000FFF7D8FD3460FDF77BFB4FF40062144B76
:106D5000044618603068134B458A1A606D082A464D
:106D60000021FFF716FE33680F491A680023CDE9AA
:106D70000331059301230295019323682433009383
:106D80006169E0685319FDF72FFE0521074806B039
:106D9000BDE87040FFF728BB4C110020BC16002056
:106DA000B816002000E100E0D96C0000008005402A
:106DB000064B9B6C5A0703D50422054B9A64704717
:106DC0001B07FCD50822024BF8E700BF00800540F6
:106DD00000A005407047000037B504460191FFF759
:106DE000E2F80546074B1868FFF788FF2846FFF7CB
:106DF000E0F8054B2146019A1868FFF78EFD03B0B5
:106E000030BD00BFB8160020BC16002010B5FFF73B
:106E1000CAF80446054B1868FFF770FF2046FFF7D5
:106E2000C8F8034B1868FFF76BFD10BDB8160020BB
:106E3000BC16002037B504460191FFF7B4F80546AB
:106E400006482146064B019A0068FEF7A5FA04465B
:106E50002846FFF7AEF8204603B030BDB816002034
:106E60002D6D000038B50546FFF796F80446284614
:106E700014F076F92046BDE83840FFF791B80000DD
:106E80000A4619B1024B00211B681847704700BF22
:106E90006011002010B50446006A10B1616AFFF766
:106EA000EFFF206AFFF7DEFF0020C4E9080010BDF5
:106EB00038B50446FFF7EEFFE3692822012B0CBF2B
:106EC00005466FF096050021204614F088F9284603
:106ED00038BD000037B50C4D0C462B7ADB070FD5BB
:106EE00000230A460193014601AB284600F097FBB8
:106EF00020B9019BA34218BF6FF0930003B030BDCF
:106F00006FF08800FAE700BF0017002008B500F016
:106F100047F80748037A13F0060F03D00822002130
:106F200014F05DF9BDE808400C210148FFF7A8BF47
:106F30000017002038B5124D297A11F0010102D056
:106F40000024204638BD0822284614F048F90222C1
:106F50002B7A62F342032B7200F016F8044660B9F4
:106F600000F010F810F1860F044600D028B92B7AF3
:106F700043F001032B72002CE2D0FFF7C7FFE0E7DC
:106F80000017002000F042BB044A002092F878303D
:106F900043F0010382F87830704700BF0C170020DF
:106FA00038B501250A4C2046E561FFF781FF04F161
:106FB00028006564FFF77CFF04F15000E566FFF7E9
:106FC00077FF94F878306FF3000384F8783038BD99
:106FD0000C17002000207047B0F5802F24D010D867
:106FE000B0F5003F22D006D828B3B0F5803F14BFDB
:106FF000012048207047B0F5403F14BF01202C20ED
:107000007047B0F5302F13D008D8B0F5E02F11D06D
:10701000B0F5202F14BF012010207047B0F57F0F6E
:1070200014BF0120062070474B2070472A2070476C
:10703000112070472120704708B570B1FFF756F94D
:107040004FF098435A6CD202FCD5586D10F4702062
:1070500004D0BDE80840FFF7BFBF212008BD08B538
:1070600028B12022002114F0BAF8002008BD212008
:10707000FCE700002DE9FF4700230E4617460446B3
:10708000009300285BD00AB1002958D037F00308DC
:1070900007F0030A25D04FF000094FF0E063C4E980
:1070A0000039012301962046029301A948F00053BC
:1070B000C4F80890C4F81C900393FFF704F9414604
:1070C0002046FFF70AF92046FFF7B6FF054640B114
:1070D00042464946304614F082F8284604B0BDE8DE
:1070E000F0874FF00009BAF1000F2AD04FF0E063AB
:1070F000C4E900390123CDF804D00293124B204695
:1071000001A9C4F80890C4F81C900393FFF7DBF8BA
:1071100004212046FFF7E1F82046FFF78DFF0546E2
:1071200008B13A46D5E7034600994644DA000133F0
:1071300021FA02F29A4506F8012BF7D1CDE7212575
:10714000CBE75546C9E700BF0400002008B5FFF7AC
:1071500041FF00F005FABDE8084000F035BA000034
:1071600030B5154B87B00293144B0390049346F649
:1071700011030D46059300F0F3F91428044616D1C7
:10718000684600F027FA4FF08843032202A95A63A9
:1071900019601D619A63DA6B9207FCD1142C02D13D
:1071A000684600F025FA00F00FFA044601E00028D6
:1071B000E9D0204607B030BD881700200400002029
:1071C0002DE9F04FB1B005468C46E9466D4F3B9E28
:1071D000DDF8F8E0409C07F1100AC8463868796885
:1071E0000837A8E803005745C146F6D10EEB020860
:1071F000C8F1000909F00F09002E00F0AF807742B6
:1072000007F00F070121DDF8FCB0C4F1100ACDF83A
:1072100010B0059144F0005106914FEA0A2101F4A3
:10722000F85141F02101079106B96B460893002DF2
:1072300040F09680002C00F0938004AB0993002E60
:1072400000F0908046F000530A93002D40F08D80AE
:10725000002C14BF0123212343EA07230B9308A921
:1072600042F00053CDF830C03D980D910E934FEA97
:10727000092343F041030F93109002B10CA9002A97
:1072800016BF00224FF00052412342EA0E02119134
:10729000129213933C9B3C4A149310AB15933B4BB7
:1072A0000021169340F611031793394B002D08BFA8
:1072B0001346189314AB1993364B10221A931123CB
:1072C0001B931CAB184613F08AFF01221D924AF053
:1072D00080421E9200220346239205B9EB46102CF1
:1072E00008BF01230DF1900A102200215046CDF86D
:1072F00080B02193229413F072FF002C37D020AB82
:10730000002125938F4218BF534647F080422692B2
:107310003A9A2CA88A422892299313460CBF4FF020
:1073200080430B46102233432B912A9313F057FFCF
:10733000FEB95346C8442D932CA948F0804318A8A1
:107340002E93FFF70DFF30B92DB90346A34212D19A
:10735000002818BF2C2031B0BDE8F08F102751E76E
:1073600001236BE747F000536EE7212374E7012305
:10737000C6E728ABDEE730AA1A4412F8C02C013366
:107380001043E3E7B2BF0100C4BF010010000020BA
:10739000C8BF010004000020F0B549258FB0149C3F
:1073A0008DF824500DF12506651E0C3415F8017F6B
:1073B000A54206F8017BF9D101258DF835509DF8DD
:1073C000545000248DF8365004250695169DCDE9BD
:1073D000001205951325049509ADCDE902358DF808
:1073E00033200B46224621468DF832408DF834403A
:1073F000FFF7E6FE0FB0F0BDF0B5C0299FB0249EA8
:107400004FD0B1F5807F04D0802941D029201FB012
:10741000F0BD40F2344440F21445002E08BF2C4623
:1074200021271025019401240296039404950597C1
:10743000259F069706B102AC07940124089509948C
:107440000A9221220B940C950D92174A0AAC0E92C7
:10745000164A0F94109242F611021192129313944D
:107460001495159201AA1692CBB112AB179304236F
:1074700018931123199316AB1A901B9340F611031E
:10748000C9081C911AA806A91D93FFF769FEBEE75B
:10749000002E14BF4FF486644FF48264C0E70EAB35
:1074A000E4E70F20B3E700BFCCBF010010000010DD
:1074B00030B5C02A93B033D0B2F5807F04D0802A93
:1074C0002BD0292013B030BD4FF482740194019C5D
:1074D00080F00100204301901698012502901024AD
:1074E0002120039504940590069301AB0795089419
:1074F00009900A9306AB0B9304230C9311230D936D
:107500000AAB0E910F9340F61103D20802A90EA800
:1075100010921193FFF724FED4E74FF48074D5E75F
:107520000F20CFE71FB5079C02949DF81840CDE9C6
:10753000003413460A4601460020FFF72DFF04B031
:1075400010BD1FB5079C02949DF81840CDE900348A
:1075500013460A4601460120FFF71EFF04B010BD86
:1075600037B5164AD2F8803243F00103C2F88032B0
:10757000134B5B68C3F308034BB14FF08842D36BE6
:1075800013F0430FFBD11424204603B030BD4FF05D
:107590008843DC6B14F04304FBD10A4D2B6833B9EC
:1075A00004222946204601AB019400F038F82B68EC
:1075B000013343F000432B60E6E700BF008000404A
:1075C00000ED00E088170020014B00205B68704749
:1075D00000ED00E010B50446FEF7DEFC4FF08843F6
:1075E0001A6822601B696360FEF7DAFC002010BD98
:1075F00010B50446FEF7D0FC4FF0884322681A60AD
:1076000062681A61FEF7CCFC002010BD08B5FFF7D8
:10761000E1FC002814BF6FF09200002008BD2DE9A6
:10762000F04F1C46002388461646052789B0236084
:10763000256808EB050BA6EB0509FFF7CBFC10B19D
:107640006FF092000DE06846FFF709FD82460028C2
:10765000F6D14A4659466846FFF70CFD70B9C4F8A2
:10766000009023681D44B54228BF0020013F2560DB
:1076700001D00028DCD109B0BDE8F08FC4F800A02B
:10768000DEE750E8003F0B4340E80032002AF8D123
:107690007047CB69184770474FF0000070470020D3
:1076A00070470020704770470020704700207047E7
:1076B000704700207047002070470020704700206E
:1076C000704700207047002070470020704700205E
:1076D00070477047112070470020704700207047A6
:1076E000002070470C20704770477047704711208A
:1076F000704700207047000008B504F0ABFE034B54
:107700001B680BB101F0EEF808BD00BF8C1700201C
:107710007FB505460C46194913460868496802AA10
:1077200003C295F82A2004A90A4412F8086C95F8B7
:107730004420D20608D422463146284601F01AF9E0
:1077400000F5FA7004B070BD2046019314F0F5F90D
:1077500095F8442000F10A0412F0030F019B4FEA50
:10776000C40405D0184614F0E8F904F50C74044478
:10777000E823701E584304FB0600E1E7D0BF010078
:1077800038B50446FEF70FFCD4E90C120546204636
:10779000FFF7BEFFA28C0346E060E08C801A40F247
:1077A000712202FB003303F59C5308332846236102
:1077B000BDE83840FEF7FDBB014B9868704700BF3D
:1077C0008C170020F0B5104B02461E6893F804C0D9
:1077D00035464FF0FF3400239C4508DC91B1631C13
:1077E00010D0882303FB046080F84520F0BD95F895
:1077F000457028469742F9D0FF2F08BF1C468835B0
:107800000133E9E70020F1E78C17002070B504464A
:107810001F4D002839D0083004F09EF80026FF23C1
:1078200004F1300084F84530E66113F098FF04F16C
:10783000340013F094FF04F1380013F090FF04F1CA
:107840003C0013F08CFF2868124B201AC0105843DC
:10785000C0B2FFF734FF01463046FFF729FF206C26
:1078600010B102F045FD2664206E18B1FFF741FF0C
:107870000023236670BD286806FB0400FFF7C6FFDF
:1078800001342B79A342F6DCF4E78826F9E700BF40
:107890008C170020F1F0F0F008B52030FFF7F1FE72
:1078A000BDE808404FF080500CF056BBF7B50446D9
:1078B0000BF0FDFAC0F30F23542B43D9AA2B34BF8E
:1078C00001230223C0B27F2834BF012202220321F8
:1078D0008DF804301344B3FBF1F000EB40001B1AA9
:1078E0008DF805301344B3FBF1F202EB42029B1A10
:1078F0008DF80630002318461D461A46124901AF7E
:1079000081F8413017F8016B44FA06FC1CF0010FB6
:1079100006D053009E40012330430132C0B2D2B2A0
:107920000135EDB2032DEDD10BB181F8410091F895
:10793000413043EA8212FF2381F8412081F8403030
:1079400003B0F0BD0023BDE78C17002038B52D49EA
:10795000044691F8402091F841300132D2B2B2EBA6
:10796000931F81F8402004D30323002081F8403086
:1079700038BD016A09033CD5032290F87630243BD8
:1079800093FBF2F202EB42029B1A2533DBB284F83E
:10799000763004F1680501F052FD50B194F844309E
:1079A000DB062CD494F8760001F04CFD80F0010049
:1079B000C0B2B4F95A1000F001000CF06DF90CF0EF
:1079C000C5F9B4F97020824204D0A4F870000CF01C
:1079D0004DF8688128460BF0BDFD00221146104687
:1079E0000BF0F5FA94F87600002101F027FD012054
:1079F000BEE75200134103F003032533C7E700201D
:107A0000D7E700BF8C17002037B5044600250830A3
:107A1000019103F0A1FF204601990BF0F7F8206CCB
:107A2000E56110B102F064FC256404F14C0003B080
:107A3000BDE8304013F093BE38B5044639B390F832
:107A400028209AB190F829300133DBB29A4280F8AD
:107A500029300BD10121FFF7D7FF0BF0EFF84FF0E2
:107A600080712046BDE83840FFF716BF236A1A042C
:107A70000DD5E36A62689B1A002B08DA01212046C3
:107A8000FFF7C2FF0BF0DAF84FF08061E9E7236AF5
:107A90005B0428D40BF00BFA1123B0FBF3F303EBD8
:107AA0000313C01A94F9593085B213FA80F01028E4
:107AB00088BFC5F110056DB2083B2B4484F85930DE
:107AC000204601210BF0A2F840F27122A38C20463F
:107AD0001D44636802FB053363600BF04BF8BDE89F
:107AE00038400BF0ABB80025EAE7000038B5436931
:107AF000044623F010034361B0F85C302BB983686F
:107B000013F4601F08BFA0F85C30236A13F010055F
:107B100018D003F00303144A002B08BF0025134BB1
:107B20001CBF012513462046E361FFF70FFF58B144
:107B30002846617E0BF06CFE0D4B9868BDE838401E
:107B40000BF0F4BD094BEEE70A4B617E1A68204644
:107B5000D37A92780B449342D8BFDAB2627601218D
:107B6000BDE83840FFF768BF41860000FD85000092
:107B70008C170020C0190020014B1879704700BFF6
:107B80008C1700202DE9F84F04460E46E1691D468A
:107B900091469DF828B09DF82C809DF838A09DF85E
:107BA00040009DF848309DF85070002940F09B80BF
:107BB000EA0600F18B8005F00301032908BF05F0F8
:107BC000FD0505F0F705A906BDF83C1048BF05F016
:107BD000FC05A4F85A1047F6FF718207A4F870104C
:107BE00077D410F0040F0CBF0120032094F8771015
:107BF00060F3030184F8771047F6FF719807A4F843
:107C0000801068D413F0040F0CBF0121032194F8F5
:107C10008730206E61F3030384F88730FFF765FD3A
:107C2000236A23F4954323F07F03002F55D12907BE
:107C3000236206D54FF006094E46236A43F4042317
:107C40002362236A6A0723F4405323620CD41AF098
:107C5000010F1CBF43F4805323621AF0020F1EBFB2
:107C6000236A43F400532362236A84F844501D437B
:107C7000BBF1000F34D125620BF019F99DF84C309F
:107C8000C0F30B0040EA03309DF83430A4F86400E0
:107C900084F82A3094F84430A6845B07A4F8269030
:107CA0000ED50C9B1B68C4F853300C9B9B88A4F822
:107CB0005730B8F1000F03D0236A43F48073236276
:107CC0002046FFF75DFD0020BDE8F88F0123184630
:107CD00079E702208AE7022199E743F40063A6E7E7
:107CE00045F40075C7E70120EEE72DE9F743894623
:107CF00017460446019330B901A813F030FD422025
:107D000003B0BDE8F083012927D0022917D0C1B9FB
:107D1000C369FBB900F130054FF48036236A03F0E4
:107D20001202022A02D1B9F1000F03D003F01403AA
:107D3000142B1CD101A813F012FD1220E0E7006EF5
:107D400020B901A813F00BFD0C20D9E71946FFF765
:107D5000CEFCD5E700F13805DEE7C36923B900F1B1
:107D600034054FF40036D9E700F13C05F9E7F1435B
:107D700004F1200858E8003F0B4048E80032002A90
:107D8000F8D1F80702D5284613F0E9FC019921B192
:107D9000284613F0DDFE00230193286813F0CDFE82
:107DA000236AD90605D51F2801DC032F11D02846E8
:107DB000C1E740F27262904204DD284613F0CFFC26
:107DC00045209DE7B9F1000F03D1BF2801DD9A07D7
:107DD000F3D1D4E90E122046FFF79AFCE3696BB1A8
:107DE00040F27122A38C5343984207D9E38C83421B
:107DF000E3D300F51C70B0FBF2F0A084FEF7D3F8DB
:107E0000E36905467BB1BB070DD531464046FFF718
:107E100038FC6368C3F57A760BF043FBF04202D579
:107E200020460BF027F82846FEF7C3F8002067E746
:107E300008B548B111F0010108D020304FF480118D
:107E4000FFF71FFC002008BD4220FCE70846FAE7C8
:107E500068B1CB0701D400207047203050E8003FC4
:107E600023F4801340E80032002AF7D1F3E74220E0
:107E7000704700002DE9F0410025304E88B033797D
:107E8000AB4203DC012008B0BDE8F08188233468F0
:107E900003FB054494F84530FF2B0DD0236A9B016A
:107EA00006D504F14C08404613F03FFE074628B9BA
:107EB000226A12F0A06F13D10135E0E7BB7994F884
:107EC00045100C333B441A8AD868ADF81C209A7AC6
:107ED000069006AB3846C2F3801204F073F9E2E76D
:107EE00094F844301D2B19D100203C230121CDE909
:107EF0000303CDE90100009004F15303C2F3002213
:107F000004F0F5FF0028BED0203454E8003F23F0F1
:107F1000A06344E80032002AF7D1CDE712F0807F59
:107F200018BF43214FF0000208BF3C2194F82930CC
:107F300094F8450004F0D0FCE4E700BF8C17002063
:107F4000F8B51F46C36904460D46164683B100299D
:107F500040F08480FEF727F8064629462046FFF7C2
:107F600053FD0AF06BFE3046FEF723F82846F8BDB5
:107F70000029FBD0036A03F01203022B70D0236A9E
:107F8000D80774D494F84530FE2B0AD104F146008A
:107F900005F05CFA05F052FA18B1236A43F48063E5
:107FA0002362236A03F4C062B2F5007F00F081808F
:107FB000D90666D5414BE361002384F82930236A52
:107FC000E168B4F85C5023F4004284F8287022621F
:107FD00021613DB913F0100F14BF3C25C82525764B
:107FE00005F2B3154EB140F27121E38C42F4004228
:107FF000C3EB06134B432262E362236A43F48023FC
:1080000023622F4B1B68DB786376FDF7CCFF636937
:10801000074643F0100304F108002946636103F0AA
:1080200041FC01200AF09CFD28B963691A075CBF76
:1080300043F00403636126B10BF033FAE36A18449A
:10804000E06220460AF096FD0AF0F8FD40F2712247
:10805000E38C384653432361FDF7ABFF002585E7EA
:10806000406B13F06AFD002889D10C257EE7236C54
:10807000002B87D102F0ECF82064002882D109257A
:1080800074E72046D4E90C12FFF742FB012F0ED013
:1080900040F27123A28C5A43904208D9E28C5A4391
:1080A000904208D800F51C70B0FBF3F0A084054B9B
:1080B00081E712255AE7452558E700BFFD850000F6
:1080C000C01900203F8F000070B500248826094D9C
:1080D0002B79A34200DC70BD286806FB040090F8F1
:1080E0004530FF2B04D000231A461946FFF728FF1E
:1080F0000134EDE78C17002006222DE9F0412A4BD0
:1081000007469C688846A5790C35635D661903F0BF
:108110004F036355727090F84430103B0D2B20D8FC
:10812000DFE803F03F1F3B071F0C1F1F1F1F1F1F10
:108130001F0C635D6FF30303635512E00122635D5F
:1081400062F3030363550C237370D0F85330B360AC
:10815000B0F85730B381036A625D1B0A63F3C7123C
:10816000625505F097FA430444BF635D97F84420D5
:10817000314644BF62F3451363553846B21C01F0E3
:1081800016F9A379717802330B44B8F1000FE3714B
:10819000A4BF41447170BDE8F081635D62F30303E5
:1081A000CAE70222635DF9E78C17002010B5418908
:1081B00004468389C289084605F027FBE8B1E279C5
:1081C000531E072B1AD86389934217D922899A42E2
:1081D00014D8237C4BB9637C3BB9A37C2BB9E37CDB
:1081E0001BB9237D13F0F0030AD0607D1B3000F033
:1081F0001F000B288CBF0020012010BD0020FCE7D1
:108200001846FAE72DE9F843354B8C79D3F80890F6
:108210000C340C4499F8067022790C37D5070646C1
:1082200009EB07032AD594F80B80B8F1250F25D860
:10823000056A991C15F0100F08BF0231062204F1DF
:10824000120012F095FFC8B919F80730A07AC3F3ED
:108250008013B3EBD01F11D115F4405512D14FF458
:108260004055A77A07F00F03032B16D1E80405D574
:10827000326A910702D5B8F10C0F2FD04FF0FF30C2
:10828000BDE8F88304F10C01C0F380100BF050FF3F
:108290000028E4D185F44055E3E7052BEED1AA048C
:1082A000ECD5356A05F01403142B0DD1062206F126
:1082B000530104F10C0012F05BFF2B0A83EA9713C1
:1082C00003F001030343D9D1EB07D7D504F118001C
:1082D000FFF76CFF0028D1D00520D1E71846CFE783
:1082E0008C17002000222DE9F04F8B79D0F84080C8
:1082F0000C3301EB030A02649AF807B0CD58076A01
:1083000004460E465846BAF8081087B00BF0E2F85B
:10831000284B07F010071B6805445B79637697B11B
:1083200005F2E2459AF80A100AF10C094846C1F331
:10833000801102F025F880B1304613F03BF900209F
:1083400007B0BDE8F08FABF1030BBBF1010F8CBFA1
:1083500005F6C41505F6A665E4E79AF80A2094F830
:1083600045C00AF11803C2F38010EFB10121C2F336
:1083700040129AF905E0CDE902C2CDE9041ECDE92B
:1083800000902A460021404602F03EF93FB10BF032
:108390002DF801212046FFF737FB0AF04FFC30464D
:1083A00013F008F90120CBE794F88710012201F0BF
:1083B0000F01DEE7C01900202DE9F34100254FF041
:1083C000FF31044601A801950AF028FF019949B13F
:1083D0002046FFF717FF032806D005283FD001A845
:1083E00013F0BDF9012033E0236A1B0533D5019951
:1083F00004F14C0013F0ACFB4FF000712046FFF786
:108400004BFA617E00201A4E0BF056FA606BB7688B
:1084100013F093FB0546BB7920460C33FA5C07EB5F
:10842000030802F0400242F00402FA54414608F107
:10843000020200F0BCFF636B002DB068A4BF0635DC
:1084400088F8015003600BF071F90A4BE3610020DA
:1084500002B0BDE8F08101A813F081F9D1E70198DD
:108460000AF092FF20460199FFF73CFFEFE700BFBB
:108470008C1700200D86000038B5C36904460D46F0
:108480003BB1036A13F0010311D190F84520FE2A95
:108490000FD004F120004FF48061FFF7F2F80120C3
:1084A0002B68C4F84630AB88A4F84A3038BD0020A9
:1084B000FCE71846FAE7036A10B5044613F4E02017
:1084C00029D0DA0307D504F1300013F048F9A36B83
:1084D00023630023A363236A9B0307D504F13400BD
:1084E00013F03DF9E36B63630023E36304F12002BF
:1084F00052E8003F23F4E02342E800310029F7D19D
:108500002046FFF73DF90120B4F864305A1C62F3AD
:108510000B03A4F8643010BD2DE9F0410C46062889
:1085200062D8DFE800F004444C61615C4C0008460E
:10853000FFF7C1FF236A13F0100003D013F003000C
:1085400018BF0120054694F82A00FFF7AFF920462E
:10855000FFF7FCF9254A264B206B002D18BF134668
:10856000E36113F0EAFA234F01462046FFF7C4FD0A
:10857000BB68226B66681A60636903F010080AF032
:1085800090FF627EB8F1000F03D1361AB6F59B7FDB
:1085900008D5114628460BF03BF9B868BDE8F04114
:1085A0000BF0C4B8284661680BF054F9F5E70AF0FF
:1085B0005BFC844218D1BDE8F0410AF017BF0E4BB6
:1085C00020461A68637ED17AD2785B1A9342A8BF9C
:1085D000DAB262760021BDE8F041FFF72DBA084615
:1085E000BDE8F041FFF782BABDE8F08141860000A6
:1085F000FD8500008C170020C0190020032802D13F
:108600000846FFF773BAFFF787BF0000032810B5CD
:108610000C460FD1086B13F090FA01462046FFF785
:108620006BFD064B226B9B682046BDE810401A602C
:10863000FFF75CBABDE81040FFF76EBF8C17002053
:10864000032810B50C4605D0042809D0BDE8104019
:10865000FFF762BF0120BDE81040497E0BF050B823
:108660000846FFF7A9FE30B10AF0C0FE2046BDE87B
:108670001040FFF73BBA10BD10B504464FF48021FF
:108680002030FEF7FEFF2046BDE810400AF0F2BBA6
:1086900008B50020FFF7BAF8BDE80840FFF72CB88E
:1086A0002DE9F0474E4D0446A86818B112F082FF3C
:1086B0000023AB60FFF7ECFF2B7923BB0020FFF713
:1086C00006F824BB002603202C712E60A5F842601A
:1086D00012F0B6FEB4422DDC2879FEF7F8FFD8B9C7
:1086E000BDE8F08708FB06F72868013638443030CB
:1086F00013F035F828683844343013F030F82B790B
:10870000B342EFDCDAE700264FF08808F7E70220F3
:1087100013F00EF9A86050B90024A8682C712C60E1
:10872000002858D10020FEF7D2FF0720D8E700F03C
:10873000D9F8C7E704EB0411C9003346012203202E
:1087400089B212F02FFE07460028E5D1032012F06F
:10875000B3FE28600028DFD088223946624312F039
:108760003EFDDFF880A0DFF88080DFF880902B7975
:10877000BB42B1DD882300262C68314603FB074449
:10878000C4E90366DAF80030E6616661DB7804F17B
:108790000800637603F086F8236A204643F013034B
:1087A00023624FF008236362072384F82A304FF6D0
:1087B0001373C4E90C66C4E90E66C4E91A98C4E9E7
:1087C0001E98A4F85C602685A4F84430E664FEF7A1
:1087D000D7FF0137CBE712F0EDFEAC60A2E700BF98
:1087E0008C170020C019002055555500D6BE898E23
:1087F000034B1B68C01A034BC0105843C0B27047EC
:108800008C170020F1F0F0F007B501910AF0EEFDB1
:1088100001210198FFF7F8F803B05DF804EB0AF0C6
:108820000DBA000070B505460D4CB0F8506094F8D4
:108830004030A16B06F5FA7606FB1311A06800F034
:1088400049FD94F840106B68002006FB01316A7EF8
:108850000BF000F8A068BDE870400AF067BF00BFE9
:108860008C17002010B5044609B1012010BD006E20
:1088700070B994F844309B07F7D12046FFF7B8FF52
:10888000FEF71DFF0028F1D0C079C0F34010EDE7DE
:10889000FEF726FF0028ECD0E7E710B50446FFF707
:1088A000E1FF00280CBF00201820236A990658BF5A
:1088B00040F001005A0648BF40F040005B0748BF47
:1088C00040F0020010BD10B50C460021FFF7CAFFB2
:1088D00030B9E3064CBF04F0180004F05B0010BD93
:1088E0001820FCE707B50C21684600F0D3FD6A4666
:1088F0000020034900F0DAFD03B05DF804FB00BF7F
:108900009817002038B50546006E38B1FEF7EAFE2C
:1089100004462846FFF7B0FE204638BD1224FBE788
:10892000F8B51F46036A04469B060D4616461AD440
:10893000006E90B9FEF7D2FE2066B0B13B463246DB
:108940002946206EFEF7D0FE94F88710206E01F0C5
:108950000F01FEF7CAFE0020F8BDFEF7C1FE002899
:10896000ECD00C20F8E71220F6E70720F4E700B17E
:10897000006E70472DE9F04706468A46114690463C
:108980009946FFF78AFF96F8875096F8774005F0EA
:108990000F0504F00F03042D0146074608BF032509
:1089A0003046042B14BF1C460324FFF78CFF00F055
:1089B0004BFCC11C20460AF08DFD1FFA80FCA6F876
:1089C00050004FF4FA700AF1FF344443FB060AFBEF
:1089D0000C440BD596F8443004F5487A03F00303B1
:1089E000012B06D0022B1DD08BB154462046BDE88A
:1089F000F087242128460AF06DFD102106462846FE
:108A00000AF068FD04F58A618C1900EB040A4046FF
:108A100013F093F829460246384600F031FC0AEB81
:108A20000004E3E70E2128460AF054FD06464846B6
:108A300013F083F829460246384600F021FC04F57D
:108A40008A6434440444D1E770B500248826094D73
:108A50002B79A34200DC70BD2B6806FB043393F82E
:108A60004520FF2A03D0186E08B1FEF732FE01340C
:108A7000EEE700BF8C1700202DE9F84F16469B4605
:108A800088460546FEF798FE0446304698F8007082
:108A900013F053F8DFF83891B9F93C60801B20EAF5
:108AA000E076384600F0D0FB7B0748BF073033182C
:108AB000FF2BC4BF47F01007C0F1FC0617F0100AE7
:108AC0000CD00AF0F4F92521B0FBF1F303FB1101FE
:108AD0003E48C9B200F02EFD85F88600BBF1000FBC
:108AE00001D095F844B05A463946204600F0EBFADA
:108AF0002946204600F077FC2946204600F004FB7A
:108B00002846FFF775FEFEF7DAFD0146204600F025
:108B10001AFB2946204600F03DFBBAF1000F4BD06E
:108B200095F8872095F8861002F00F02204600F095
:108B30003BFB2946204600F05FFB88B1A379E27930
:108B40006968D21A0C3353FA82F2D9F83830286E99
:108B500019442244FEF7C0FD0146204612F0D6FD1E
:108B60000A23BAF1000F2ED0B5F9801091FBF3F172
:108B7000204649B200F046FB2846FFF739FEFEF7D3
:108B80009EFD0146204600F0E8FA3146204600F0FE
:108B900049FBBAF1000F0AD095F88700FF2100F0D9
:108BA0000F0000F0C7FB0146204600F093FB304663
:108BB00088F80070BDE8F88F95F8772095F8761062
:108BC00002F00F02B2E7B5F97010CFE79817002056
:108BD0008C1700202DE9F743044615461E468DF8F4
:108BE000071000F1780700F02AFC30B194F88600F5
:108BF00000F028FC80F00100C0B2B4F95A1000F077
:108C000001000BF049F80BF0A1F8B4F98020824282
:108C100004D0A4F880000AF029FF788138460AF0D1
:108C200099FC0022114610460AF0D1F99DF8073050
:108C30005A0709D52046FFF7DBFDFEF740FD00216E
:108C4000024604200AF0C3F9FEF7B6FD9DF807308E
:108C5000804623F010038DF807302A4620469DF801
:108C600028300DF10701FFF707FFDFF8589007469E
:108C7000A9F83E00C6B1104B6168E361D9F83830FD
:108C80003046627E19440AF0E5FD3B4629464046DF
:108C9000B9F93C200AF076FD002194F8860000F036
:108CA000CDFB03B0BDE8F0839DF80730DB064CBF79
:108CB000024B034BE0E700BF75900000D18E00002F
:108CC0002D8F00008C17002038B50C461D464FF440
:108CD0004073097BE380032301F04F0141EAC21294
:108CE0002273E37304F1100204F10C0100F05FFB46
:108CF0002B68E279C4F81630AB8863830D231A44DD
:108D0000E2710822A37301336373237B62F30303CD
:108D1000237338BD37B5044690F85250006E05F005
:108D2000EF0538B1FEF7DCFC20B1236A9A0708BFD3
:108D300045F020052046FFF75BFDFEF7C0FC48B17B
:108D4000C3799B0606D5236E23B9838845F00405B5
:108D50000133838000220121094B20469A87236A30
:108D6000226B13F0020F18BF002213F0030318BF89
:108D70000B4600912946FFF72DFF03B030BD00BF21
:108D80008C170020436910B523F010034361B0F83D
:108D90005C3004462BB9836813F4601F08BFA0F849
:108DA0005C30124B2046E361FEF7D0FD20B1204637
:108DB000BDE81040FFF736BD2046216BFFF752FD9E
:108DC00020B12046BDE81040FFF7A4BF084B617EEC
:108DD0001A682046D37A92780B449342D8BFDAB20D
:108DE00062760121BDE81040FEF726BE3F8F0000ED
:108DF000C019002037B50446FFF75DFB28B12046B7
:108E0000216BFFF74AFD84F85200174D94F82A00B1
:108E1000FEF74CFDB4F8503095F8412003F5FA7395
:108E200092095343204603F59673AB63FEF78EFD1C
:108E30000E4B94F85210E3616369204643F001033E
:108E40006361FFF740FD0DF107018DF80700012375
:108E500000222046FFF710FE0022AB6820461A6071
:108E6000FFF7E0FC03B030BD8C1700203F8F0000FF
:108E700010B50C46062827D8DFE800F004091126B3
:108E8000262111000846BDE81040FFF7B3BF09F0E6
:108E9000EBFF844218D1BDE810400AF0A7BA0B4B93
:108EA00020461A68637ED17AD2785B1A9342A8BFB3
:108EB000DAB262760021BDE81040FEF7BDBD08467B
:108EC000BDE81040FFF75EBF10BD00BFC019002015
:108ED000032837B50C4622D1134D91F88700AB8F8C
:108EE000EA8FFF21134400F00F00AB8700F022FA55
:108EF000AB6B94F85210184494F84430A86313F004
:108F0000020F4FF00003D4E90C20009318BF024673
:108F100001F048012046FFF75DFE03B030BD03B00D
:108F2000BDE83040FFF7A4BF8C17002003280B4694
:108F300003D101211846FEF77FBDFFF799BF032833
:108F400002D10846FFF71EBFFFF792BFF7B5002614
:108F50004FF0FF31044601A801960AF05FF901992C
:108F600049B12046FFF74EF9032806D0052856D010
:108F700001A812F0F4FB01204AE0FEF71DFC0923D2
:108F80000546626B8DF803300DF103010123204685
:108F9000FFF772FD0746A8790544AB7B304666F3C0
:108FA0008713AB732F4D617E0AF086FC3B46616BE5
:108FB000A8683246EF87AE870AF0E4FB9DF80330DD
:108FC000294A13F0100F294B08BF13460198E3619B
:108FD0000AF0DAF9019A93790C33D0180189C07933
:108FE000D7580AF077FA6368C3F196033B441844F4
:108FF000A863206A10F400650CD0019904F14C00BC
:1090000012F0A6FD20464FF00071FEF745FC3046F9
:1090100003B0F0BD01A812F0A2FB2846F8E7019DBD
:109020003046AB79617E0C331D44114B0D4FE3612B
:109030000AF042FCAA7AB96805F10C03C2F3801267
:109040002046FFF741FEB86806600AF06FFB019802
:109050000AF09AF920460199FFF744F980F00100DF
:10906000C0B2D5E78C1700202D8F0000D18E0000F4
:1090700009880000042810B50C4609D005280DD039
:10908000032811D1BDE810400120497E0AF038BB09
:109090000846FFF75BFF58B10AF0A8F92046BDE883
:1090A00010400121FEF7C8BCBDE81040FFF7E0BE4C
:1090B00010BD08B503F0CEF9BDE808404FF480506C
:1090C000002104F093BA37B54FF440748379C4801B
:1090D000002407250C33C452C45C8DF8071065F3D7
:1090E0000304C118C45402F0010392078A7848BFF0
:1090F00043F0020363F387128A7001220DF1070126
:1091000012F00FFB03B030BDF0B4867906F10C0409
:109110000519EA78920714D5C279D1F85370921BD9
:10912000D6B2AF5155FA82F2B1F8575095800A6A1B
:10913000015D120A62F3C71101550621F0BC12F05D
:10914000E5BAF0BC704783790344DB7B5B0703D54A
:109150000122063112F0E5BA704707B5837903445E
:10916000DB7B5B0713D506238DF80030FF238DF8DA
:10917000013040F2FF23ADF8023000238DF80430B7
:109180008B8807226946ADF8053012F0CAFA03B0A1
:109190005DF804FB83790344DB7B1B0703D50222C4
:1091A000643112F0BEBA70471FB503468079184487
:1091B000C07BC0061BD50F4C2068029020798DF82B
:1091C0000C000020ADF8040061F3050004A90A4476
:1091D0004FF0000112F8082C8DF8040062F34711DB
:1091E0008DF806100322184601A912F09AFA04B06D
:1091F00010BD00BFE0BF010083791844C07BC0F3FD
:109200004010704707B583798DF807100344DB7B66
:109210005B0604D501220DF1070112F082FA03B0BA
:109220005DF804FB10B58479C37904F10C021B1BB3
:1092300002390244D8B251FA83F353709378033859
:1092400060F30503937010BD0C4A034691881068C3
:10925000927982B000908DF8062002206A46ADF81F
:1092600004100BB902B07047D90748BF11784FEA14
:10927000530348BF40180132F3E700BFD8BF0100D5
:1092800070B5054600F06B0014460E46FFF7DCFF94
:1092900054FA80F4FF2C05D821463046BDE87040D2
:1092A0000AF018B9FF2130460AF014F905F040051C
:1092B000FC3D00F5487061190446FF2904EB0003EA
:1092C00002D91C462944F8E730460AF003F9204445
:1092D00070BD000038B583790C460C33C518C35CEB
:1092E00003F00F03072B21D1E878C3061ED500F049
:1092F0000F00FFF7A9FF0E49AB1C8C4295BF1E2142
:109300004FF496710025012594BFB4FBF1F4B4FB32
:10931000F1F4195C1A1865F3C71119549378547055
:1093200023F01F03C4F304241C43947038BD00BF12
:10933000C3BF030008B50231C0B20AF0CBF800F594
:10934000FA7008BDF0B5002411F01001DC7102D1F3
:1093500008469971F0BD01212526997181784578DB
:1093600001F01F0145EA012590F90010002901785C
:10937000B8BF4FF4967401F03F01B1FBF6F706FB5E
:10938000171119718178A8BF1E244909013159713B
:109390000139022909D805FB04F1B1F5FA7F2CBF88
:1093A000012002200A44D8711A600320D2E730B4A9
:1093B000046A0B7814F400750ED084F48014C4F39E
:1093C000005464F386130B70D0F8463030BC136041
:1093D000B0F84A309380704765F38613104630BC6E
:1093E0000B7003F0EDBF38B50446A579084605F1CA
:1093F0000C03E118CB78DB070BD5E279521B51FA4D
:1094000082F2FFF7D4FF2046BDE83840062112F073
:109410007DB938BD704770470268024B1A60027907
:109420001A717047D01700204FF0FF32024B1A60BC
:109430001F221A71704700BFD0170020704700200C
:1094400070470000054AC308D35C00F0070023FA08
:1094500000F0C04300F00100704700BFD0170020AB
:109460000020704770471120704700231A4630B51E
:10947000C3F3C404045D03F00705EC40E40702D520
:1094800001328A4204DA0133252BF1D1002030BDAC
:109490000120FCE710B4044A1468046012790271D8
:1094A0005DF8044BFFF7E1BFD01700200B4670B505
:1094B00011688AB0C3F8011011795971002119702F
:1094C000C1F3C404145D01F00705EC40E407CEB21B
:1094D00006D51C780AAD2544013405F8286C1C70AB
:1094E00001312529ECD11C7830B122466946981DFE
:1094F00011F04EFE0AB070BD002CFBD00633C0F355
:10950000C405555D00F00706F540ED07C1B208D46B
:10951000B1FBF4F504FB15110AAD55FA81F111F810
:10952000281C0130252803F8011BE8D1E2E70221BD
:10953000FFF79BBF014488797047000082EA12421E
:109540001FFA82FC8CEA010191FAA1F109BA8BB2EF
:1095500003EB031363449BB293FAA3F31BBA9BB2CE
:1095600003EB031363449BB293FAA3F31BBA9BB2BE
:1095700003EB031363448CEA0303114A9BB2A2FB7F
:109580000312991A02EB5102520902EBC20102EBDB
:1095900081029A1AC2F3CC010144497802F0070C07
:1095A00021FA0CF1C90758BF90F800C092B257BF1A
:1095B00003FB0CF3D0B200EB13408079704700BF7F
:1095C0004D91CFBA50E8003F0B4340E80032002AEB
:1095D000F8D17047C94350E8003F0B4040E80032E3
:1095E000002AF8D1704738B505460C46FFF727FF2B
:1095F00020B149F640439C4228BF1C46EB68A34279
:109600000AD240F27121B5F87E204A43934238BF16
:109610001346A34228BF23462B6138BD30B5184BF3
:10962000826A1B6812065D7901D4457630BD018FD0
:109630001C79436B0903B1FBF3F1B0F8A020631B65
:10964000B1FBF3F102B1013AD0F8A43003B15210EA
:109650001302B3FBF1F35B190DD090F8992012F0CF
:10966000F00F08D01209B3EB820FB8BF00234FEA06
:109670008201A8BF5B1AA342A8BF23464376D5E761
:10968000C01900200123074A03FA00F002F1140375
:1096900053E8003F034302F1140C4CE80031002969
:1096A000F4D17047D8170020F8B5214F05467B69E3
:1096B0000C4613F4C07F04D0990636D4012420460A
:1096C000F8BD39B15A0705D4D5F8A83013B9082028
:1096D000FFF7D8FF7B699B0601D50024EFE77B7F6E
:1096E000AE6A022B06F0080602D9DEB1002CE5D0E6
:1096F00095F8961095F83701063100F00F0009F043
:10970000E9FE85B20EB904B16D0009F017FAA8425E
:10971000D4DB7B6913F01C0FDFD1002ECFD084F097
:109720000104CCE7002CE3D0C8E7002CCAD1D4E771
:10973000D81700200C207047002070470020704789
:10974000704711207047704770477047704702F0AC
:1097500061B810B101F1B000704701F1D400704759
:10976000F8307047806A70472830FFF72BBF2830E9
:10977000FFF730BFC06A70472C30FFF723BF2C3093
:10978000FFF728BF00F59C70704790F8891008B566
:1097900011F0F00F04D00909823005F073FE08BD06
:1097A0007F20FCE738B504460D46FCF7FCFB94F837
:1097B00089305A1C02F00F02062A94BF62F3030399
:1097C0006FF3030384F8893094F8893003F00F03B2
:1097D000234483F8825094F889306F2B4FEA131298
:1097E0009EBF013262F3071384F88930BDE8384028
:1097F000FCF7DFBB02290346808F11D0032909D073
:10980000012906D11A8F5B6B1201B2FBF3F31844E6
:1098100080B270475A6B4FF47A43B3FBF2F3F6E72A
:109820005B8F073000EB4300F2E7000070B50446A1
:10983000343015460E4603F075FF40F2712263681E
:1098400002FB0633A3EB1021A36A61601B0749BF2B
:109850000649554301FB0500656F53BF01EB5501F8
:1098600005EB40006067616070BD00BF803801009B
:10987000836A590505D4D0F8A43013B15B799A07EF
:1098800008D4D0F8A80000B9704743799B0701D4E9
:109890000068F8E70120704780F8731070470000F7
:1098A00013B50190FCF77FFB044601990648FFF7CA
:1098B00089FE4FF480700AF04FFB204602B0BDE8ED
:1098C0001040FCF776BB00BFFC170020084B9A7EC7
:1098D00082420AD94FF4A4721B6802FB0030836AEB
:1098E00013F0100F08BF002070470020704700BF22
:1098F000D817002008490A68821A0848D310002A9D
:1099000003FB00F005DB8B7E8342D8BF4FF0FF30B6
:1099100070474FF0FF307047D8170020199C8FC157
:1099200037B504460191FCF73EFB0199054604F169
:109930003000FFF747FE2046FFF7DCFF01218140A2
:109940000648FFF73FFE4FF480700AF005FB2846FB
:1099500003B0BDE83040FCF72CBB00BFFC17002073
:10996000002337B50193836A0446580514D5D4F80B
:10997000A43004F1A800019311F0FBFEC4F8A40088
:1099800050B194F846314FF48061013B84F8463180
:1099900004F12800FFF71EFED4F8A4500DB9364B91
:1099A0009D6894F94631012B0ADCD4F8AC303BB108
:1099B000A36AD90504D44FF480512046FFF7B0FFC5
:1099C000D4F8A810A36A002914BF01210021AA79A4
:1099D0004FEA830302F10C0203F00C0343EA011384
:1099E000A95C21F01C0143EA0103AB540DD1224ACA
:1099F00002F1140353E8003F23F0080302F11400BE
:109A000040E800310029F3D102E00320FFF73AFEDD
:109A1000284609F08BFE019BEBB15B7903F00A034A
:109A2000082B15D1B4F8983004205A1C62F30B03AC
:109A3000A4F8983003F0D4FD50B10F4A937F01335E
:109A4000DBB2042B937703D14FF080600AF084FAE5
:109A500001A811F084FE6B799A070BD5A36A1B0449
:109A600008D50820FFF70EFE4FF4004104F128004E
:109A7000FFF7B0FD03B030BDD8170020064B5A6980
:109A8000510608D5826A120705D51B69143B43604D
:109A90004FF4205343677047D817002070B5856A8C
:109AA000044615F0080517D040F27121836FB0F815
:109AB00080505D43436F05F1800203EB4203B0F831
:109AC0007C2043674A431B0AB2F5487FACBF9B1812
:109AD00003F548732D0AC36040F27126616B20467E
